:020000040002F8
:10200000185F0020E9230200F1230200F3230200FD
:10201000F5230200F7230200F9230200000000006C
:10202000000000000000000000000000FB23020090
:10203000FD23020000000000FF2302000124020033
:10204000C127020003240200AD2A0200032402007B
:102050000324020003240200992502000324020045
:1020600003240200032402000324020003240200CC
:1020700003240200032402000324020003240200BC
:102080000324020019280200032402000324020092
:102090009D28020003240200A1280200032402005C
:1020A000032402000324020003240200032402008C
:1020B00003240200032402000000000000000000CE
:1020C000032402000324020003240200032402006C
:1020D000032402000324020003240200032402005C
:1020E0000324020003240200032402000000000075
:1020F000000000000324020000000000032402008E
:1021000000000000000000000000000000000000CF
:1021100000000000000000000000000000000000BF
:1021200000000000000000000000000000000000AF
:10213000000000000000000000000000000000009F
:10214000000000000000000000000000000000008F
:10215000000000000000000000000000000000007F
:10216000000000000000000000000000000000006F
:10217000000000000000000000000000000000005F
:10218000000000000000000000000000000000004F
:10219000000000000000000000000000000000003F
:1021A000000000000000000000000000000000002F
:1021B000000000000000000000000000000000001F
:1021C000000000000000000000000000000000000F
:1021D00000000000000000000000000000000000FF
:1021E00000000000000000000000000000000000EF
:1021F00000000000000000000000000000000000DF
:10220000DFF80CD000F06CF9004800470D4B0200DD
:10221000185F002030B4044654E8000F0D4644E82F
:102220000053002BF8D1156030BC704730B4044621
:1022300054E8000F40EA010544E80053002BF7D1B1
:10224000156030BC704730B4044654E8000F00EA13
:10225000010544E80053002BF7D1156030BC7047EE
:1022600030B4044654E8000F80EA010544E8005306
:10227000002BF7D1156030BC704730B4044654E8E9
:10228000000F00EB010544E80053002BF7D1156067
:1022900030BC704730B4044654E8000FA0EB010591
:1022A00044E80053002BF7D1156030BC70470000A4
:1022B00030B4044654E8000F0D4644E80053002BA8
:1022C000F8D1156030BC704730B4044654E8000FB4
:1022D00040EA010544E80053002BF7D1156030BCFB
:1022E000704730B4044654E8000F00EA010544E8A2
:1022F0000053002BF7D1156030BC704730B4044652
:1023000054E8000F80EA010544E80053002BF7D1A0
:10231000156030BC704730B4044654E8000F00EB41
:10232000010544E80053002BF7D1156030BC70471D
:1023300030B4044654E8000FA0EB010544E8005314
:10234000002BF7D1156030BC7047000030B4044654
:1023500054E8000F0D4644E80053002BF8D11560F7
:1023600030BC704730B4044654E8000F40EA010521
:1023700044E80053002BF7D1156030BC704730B4EF
:10238000044654E8000F00EA010544E80053002B1E
:10239000F7D1156030BC704730B4044654E8000FE4
:1023A00080EA010544E80053002BF7D1156030BCEA
:1023B000704730B4044654E8000F00EB010544E8D0
:1023C0000053002BF7D1156030BC704730B4044681
:1023D00054E8000FA0EB010544E80053002BF7D1AF
:1023E000156030BC7047000006488047064800472B
:1023F000FEE7FEE7FEE7FEE7FEE7FEE7FEE7FEE7B5
:10240000FEE7FEE7A528020001220200004870470F
:10241000F483020040EA01039B0703D009E008C9E6
:10242000121F08C0042AFAD203E011F8013B00F899
:10243000013B521EF9D27047D2B201E000F8012BE5
:10244000491EFBD270470022F6E710B513460A4634
:1024500004461946FFF7F0FF204610BD421C10F855
:10246000011B0029FBD1801A7047034611F8012B8C
:1024700000F8012B002AF9D1184670472DE9F05FCA
:102480000546002092469B468846064681464024E3
:102490001BE0284641464746224600F042F8534694
:1024A0005A46C01A914110D311461846224600F0F0
:1024B00029F82D1A67EB01084F462246012000211A
:1024C00000F020F817EB00094E41201EA4F1010492
:1024D000DFDC484631462A464346BDE8F09F00000F
:1024E000064C074D06E0E06840F0010394E8070061
:1024F00098471034AC42F6D3FFF786FED88A020024
:10250000F88A0200202A04DB203A00FA02F10020B7
:1025100070479140C2F1200320FA03F31943904021
:102520007047202A04DB203A21FA02F0002170478C
:1025300021FA02F3D040C2F120029140084319462B
:10254000704770B58C1810F8015B15F0070301D1C6
:1025500010F8013B2A1106D110F8012B03E010F806
:10256000016B01F8016B5B1EF9D12B0705D4002329
:10257000521E0DD401F8013BFAE710F8013BCB1ACB
:10258000921C03E013F8015B01F8015B521EF9D5C0
:10259000A142D8D3002070BD2DE9F04F00268FB0A6
:1025A000DFF8B081B14602964FF4807501243746BA
:1025B0000396284603F012FA38B1D8F804032042F3
:1025C00003D0284603F000FA26432D1D64007F1C2B
:1025D000ADB2082FEDD34FF4BE74204603F0FEF9E0
:1025E00048B1204603F0F0F946F0004602AA022165
:1025F000002003F0D3F9584C16F0FF0F15D0012737
:10260000002537420DD008EB8501D1F81005D1F82F
:102610001015C0F3052054F82520C1F3014102B183
:1026200090477F006D1C082DEBD3002E7DDA002033
:10263000CDF82890411E0DF1080B08AACDF82C907A
:1026400042F82010401C91460228F9D300252E465E
:10265000A01910F8607F90F9000027F0C008401C16
:1026600049D008A9404602F07CFC88B34FEA971A8B
:10267000404601F07FFC54F820701FB1BAF1030FFF
:1026800003D00FE0BAF1030F35D10AA84FEAD80200
:1026900008F00703815C4FF0010C0CFA03FC41EADF
:1026A0000C01815406A8CDF8188003F039F9069979
:1026B00000EB8100D0F8000702A9C0F301400690AA
:1026C000404602F04EFC0028069802D0022802D0B4
:1026D00011E003280FD1BAF1030F08D106980228A0
:1026E00032D00221404603F0F4F86D1CEDB217B170
:1026F00051464046B847761C042EA9D3002D20D061
:1027000004AA0221002003F049F900205A4604A936
:1027100052F8206051F82030B34217D000200AAEA2
:102720004FEA090351F8207000E00AE042F82070F7
:1027300056F8207043F82070401C0228F2D3002D78
:1027400084D10FB0BDE8F08F0321CBE7401C0228F5
:10275000DED3F6E7006000409035002000F01F0255
:10276000012191404009800000F1E020C0F8801272
:10277000704700F01F02012191404009800000F1E4
:10278000E020C0F80011704700F01F0201219140C5
:102790004009800000F1E020C0F8001270474907AE
:1027A000090E002806DA00F00F0000F1E02080F8A2
:1027B000141D704700F1E02080F8001470470000FD
:1027C0002DE9F0414FF48077384602F093FC012464
:1027D000104EA50748B1384602F093FC0120C5F819
:1027E00008037470002001F0EFFB4FF48277384645
:1027F00002F080FC00280BD0384602F082FC022058
:10280000C5F80803B470BDE8F041012001F0DCBB5D
:10281000BDE8F0817C35002007480021C0F8401158
:10282000C0F84411C0F84811C0F84C11C0F80011AC
:10283000C0F8041104F080BE0010014000F012BA8C
:1028400070B50E46144900EB400001EBC00514467C
:10285000E86A183520B101280FD0022805D113E00D
:10286000284600F033FAA04201D2002411E02246AB
:102870003146284600F062FA0BE0284600F026FABE
:10288000A042F4D20446F2E73146284600F029FA85
:102890000446204670BD00007C3C002004F0BEBD14
:1028A00003F0BCBD30B54FF080500022D0F830119D
:1028B0000123082902D1D0F8344114B1082909D0E4
:1028C0000BE04FF08041C1F80C21C1F8102168499C
:1028D0000A6005E0D0F8344114B1082957D059E016
:1028E00064490968644C21606249091D0968241D16
:1028F0002160604908310968241D21605D490C315F
:102900000968241D21605B4910310968241D21607C
:10291000584914310968241D216056491831096845
:10292000554C2034216053491C310968241D216015
:10293000504920310968241D21604E49243109681D
:10294000241D21604B4928310968241D2160494913
:102950002C310968241D2160464930310968464CF4
:1029600040342160434934310968241D21604149C4
:1029700038310968241D21603E493C310968241D15
:1029800021603C4940310968241D216005E0D0F8F0
:10299000344114B1082904D006E0394C374921608C
:1029A00005E0D0F8344114B1082904D006E0354CD4
:1029B000FB21216005E0D0F8344114B1082908D08A
:1029C0000AE090F858423048016864F3030101605E
:1029D00005E0D0F8344114B1082905D00EE02B49A8
:1029E0004FF40070086002E0D0F8340130B9284894
:1029F0000168C90702D06FF0010101602548016834
:102A000041F470010160BFF34F8FBFF36F8F4FF040
:102A10001021D1F80002002803DBD1F804020028BD
:102A200022DA1D4C23601D480368002BFCD01223C2
:102A3000C1F800320568002DFCD0C1F804320168ED
:102A40000029FCD0226001680029FCD0BFF34F8F21
:102A500010487C380168124A01F4E06111430160BA
:102A6000BFF34F8F00BFFDE70F490E48086030BD30
:102A7000380500400404001020C5004048810300D0
:102A80008C56004018F50040E40E0040409602408D
:102A90000004004088ED00E004E5014000E401404E
:102AA0000400FA050090D0038C2A00200448017F1E
:102AB00004480029024901D004F0E5BE04F054BEE8
:102AC000F835002000200040F8B5144C0546A068F9
:102AD000804720698047216AC5F30740C5F3072670
:102AE00099B1626A8AB18DF800008DF801608DF8A5
:102AF0000250032168469047A069804705466069F7
:102B00008047E06880472846F8BDE1698847E16969
:102B100030468847E169E8B28847EDE7642A00203B
:102B20002DE9F8431A4C05461746A06888468047A9
:102B300020698047216AC5F30740C5F30726A1B184
:102B4000626A92B18DF800008DF801608DF8025034
:102B5000032168469047226A39464046904760699B
:102B60008047E0688047BDE8F883E1698847E1690C
:102B700030468847E169E8B28847002505E0A0694A
:102B8000804708F805006D1CADB2BD42F7D3E6E7FB
:102B9000642A0020F8B5164C05460E46A06880470A
:102BA00020698047626A45F004058AB1280C8DF8D7
:102BB0000000280A8DF801008DF802508DF803609E
:102BC00004216846904760698047E0688047F8BD07
:102BD000E169C5F307408847E169C5F307208847E5
:102BE000E169E8B28847E16930468847EBE70000D1
:102BF000642A0020F8B51A4C05461646A0680F4610
:102C0000804720698047626A45F004059AB1280C24
:102C10008DF80000280A8DF801008DF8025003217C
:102C200068469047626A31463846904760698047F7
:102C3000E0688047F8BDE169C5F307408847E1696E
:102C4000C5F307208847E169E8B28847002504E01A
:102C5000E169785D88476D1CADB2B542F8D3E5E710
:102C6000642A002010B5124C02202061606111A07E
:102C7000A06104F17800E0614FF400702062002050
:102C8000A06260620BA1A164E06204F51E71E164C0
:102C90001021A065C4E91410E06509A1E01DFFF74B
:102CA000E4FB08A12046FFF7E0FB2020A07110BD47
:102CB0007C3C00205465726D696E616C0000000000
:102CC0005254540053454747455200000269C168B9
:102CD0008A4203D88068401A104400E0501A401E0F
:102CE00070472DE9F047C4681746894606464FF0FD
:102CF00000083069A04201D9051B02E0B168201A22
:102D00000D1AB0686D1E001BA84200D80546BD42D2
:102D100000D33D4670682A4620444946FFF77AFBB7
:102D2000B0687F1B2C44A844A944A04200D10024D1
:102D3000F460002FDDD14046BDE8F0872DE9F04179
:102D400004468846D4E90207C51BE1686068164658
:102D50000844B54206D94146FFF75CFBB819E0606C
:102D6000BDE8F0812A464146FFF754FB761B08EB8D
:102D7000050132466068FFF74DFBE660F0E70000B2
:102D80000FB4054B10B503A9044A029800F03EF8B1
:102D900010BC5DF814FB0000A3450200DC290020F4
:102DA0000FB4084B10B504A902AA039800F02EF83E
:102DB000044602A9002000F05AFA204610BC5DF833
:102DC00014FB00006F32020002E008C8121F08C1A5
:102DD000002AFAD170477047002001E001C1121F9C
:102DE000002AFBD1704700000121202803DA81402E
:102DF0000548014003E0402802DA2038814009B14B
:102E00000120704700207047FC06FFBD2DE9FF4FF1
:102E10008DB00F460546002606E025280BD0DDE9DB
:102E20000F1290476D1C761C28780028F5D111B040
:102E30003046BDE8F08F0024A246A1460122EC49AD
:102E400000E0044315F8013F203B02FA03F008427A
:102E5000F7D128782A2810D06FF02F022878A0F117
:102E60003001092914D80AEB8A0102EB410144F030
:102E7000020400EB010A6D1CF0E701CF5FEA000AD3
:102E800003D544F40054CAF1000A44F002046D1C56
:102E900028782E2817D115F8010F44F004042A28A9
:102EA0000ED06FF02F022878A0F1300109290AD83E
:102EB00009EB890102EB410100EB01096D1CF2E70E
:102EC00057F8049B6D1C28786C280FD006DC4C2822
:102ED00017D068280DD06A2814D104E0742810D0C7
:102EE0007A280FD10DE044F400140AE044F4801471
:102EF00001E044F440146978814202D104F5801461
:102F00006D1C6D1C2A786E2A1FD00CDC632A31D010
:102F100004DC002A8BD0582A11D1A3E0642A68D09F
:102F2000692A0CD165E0732A2ED004DC6F2A73D095
:102F3000702A04D19BE0752A6FD0782A6ED0104693
:102F4000DDE90F129047761C50E1C4F302500228CD
:102F500006D0032809D0042801CF09D0066045E136
:102F600001CFF117C0E9006140E101CF06803DE1EA
:102F700006703BE117F8040B8DF8000000208DF877
:102F80000100EB46012003E057F804BB4FF0FF308F
:102F900061074FF0000102D40DE008F101018846FD
:102FA00049450FDA8045F8DB1BF808100029F4D1F9
:102FB00008E008F1010188468142FADB1BF808109D
:102FC0000029F6D1DDE90F23AAEB0800814621464E
:102FD00000F036F9304400EB080604E0DDE90F129A
:102FE0001BF8010B9047B8F10108F7D2214648467B
:102FF000F7E00A21C4F302534FF0000B0891022BB3
:1030000004D001CFC117032B09D00AE0FF1D27F020
:103010000707F7E8020108E032E01FE020E000B215
:10302000C117042B01D140B2C117031E71F1000377
:1030300007DA4FF0000CD0EB0C006CEB01012D23F4
:1030400002E0230504D52B238DF82430012303E06F
:10305000E30701D02023F7E7984658E00A2110E063
:1030600010210EE010204FF0000B08900CE0102112
:103070004FF0000B44F004044FF00809089103E0FE
:1030800008214FF0000B0891C4F30253022B04D027
:1030900001CF0021032B06D006E0FF1D27F0070714
:1030A000F7E8020103E080B2042B00D1C0B24FF078
:1030B000000823072BD5702A07D0DDF820C08CF03C
:1030C000100C5CEA0B0C05D00EE040238DF8243088
:1030D000012308E050EA010306D030238DF82430A4
:1030E0008DF8252002239846DDF820C08CF0080CCE
:1030F0005CEA0B0C0BD150EA010301D1630706D542
:1031000030238DF824304FF00108A9F10109582A25
:1031100004D038A20B9208AA0A920BE03AA2F9E76F
:103120005B46089AFFF7AAF90B9B9B5C0A9A521E12
:103130000A92137050EA0102F2D10A98ADEB000036
:1031400000F1200B600702D524F4803401E04FF039
:103150000109D94502DDA9EB0B0000E0002000EBDE
:103160000B0141440890AAEB010AE00306D4DDE913
:103170000F232146504600F063F806444FF0000943
:1031800008E009A911F80900DDE90F12904709F1DB
:103190000109761CC145F4DBE0030CD5DDE90F2302
:1031A0002146504600F04CF8064404E0DDE90F12D9
:1031B00030209047761C0899481E08900029F5DCBD
:1031C00008E00A980A990078491C0A91DDE90F1273
:1031D0009047761CBBF10001ABF1010BF1DC2146FD
:1031E0005046DDE90F2300F019F806446D1C1BE67C
:1031F00009280100303132333435363738396162CD
:103200006364656600000000303132333435363790
:103210003839414243444546000000002DE9F04161
:10322000044600251E461746880404D405E03946A6
:103230002020B0476D1C641EF9D52846BDE8F081FA
:103240002DE9F041044600251E469046C80301D5ED
:10325000302700E02027880404D505E041463846A1
:10326000B0476D1C641EF9D52846BDE8F0810A6898
:10327000531C0B601070704710B501220221002012
:1032800000F02AFE08B1072810D1072202210120F0
:1032900000F022FE08B1072808D100210A220846C2
:1032A00000F01AFE08B1072800D1002010BD000070
:1032B000134C0121208801EB004012A102F03CFDDB
:1032C00002F00AFE02F062FC0028FBD10F48006801
:1032D000C00700D000BE2088032101EB00400CA1F4
:1032E00002F02AFDBFF34F8F0848E43801680D4A09
:1032F00001F4E06111430160BFF34F8F00BFFDE7B0
:10330000F02A0020466174616C000000F0ED00E0DE
:10331000486974207765616B2068616E646C6572C2
:10332000000000000400FA050EB500210091CDE96F
:1033300001106A4644F20100FFF7BAFF0EBD10B556
:103340008268C368934203D001F018F9002010BDD1
:10335000052010BD29B112B1531E134203D009201C
:1033600070470E2070470160838000218160C1603A
:103370000846704710B58268C3689A1A83889A42D3
:1033800003D801F005F9002010BD042010BD000095
:10339000074B9B7823B12AB120B10068037C1BB195
:1033A0000820704707207047417442610020704731
:1033B0001836002070B503F0D1FB104800240B2113
:1033C000047044700E4D817014206C602C706C7011
:1033D000FFF7C4F907211420FFF7E1F91420FFF7E4
:1033E000C8F90848046007211120FFF7D8F90548FB
:1033F000001F0068A860002070BD00001836002083
:10340000B0290020081501402DE9FC47DFF878902D
:1034100099F8023073B368B3052902D20720BDE8DA
:10342000FC87436933B3437C012B25D00027044636
:103430000025884616468DF80050684600F0BAF818
:1034400001A804F06FFBC8B1012101700F4944606D
:103450000968C0E90218C0E904769DF8040089F8FB
:1034600001009DF8000000F0C9F81420FFF78CF966
:103470002846D4E70820D2E70F46D8E704259DF870
:10348000000000F0BBF8F3E71836002004150140F7
:1034900070B50A4E01460A48B578FFF750FF04465A
:1034A0004DB10020B070711C0122C81D01F00EFF4B
:1034B00008B1FFF739FF204670BD0000C429002085
:1034C00024370020F0B5284E89B01F460D00044671
:1034D00072603BD0A888296882B22448FFF73AFF7F
:1034E000002834D1A889A96882B220481030FFF79B
:1034F00031FF00282BD120221D496846FEF78AFFA4
:1035000060690690207C00B101208DF814008DF8D0
:103510001C70607C00B10E208DF81500E0680290F0
:10352000A068039020680190606800900E48114ADE
:103530006946083001F096FE002808D1B070206876
:10354000401C04D09DF81D0018B106E0072009B00A
:10355000F0BD0548083001F011FF03490122491C64
:10356000C81D01F0B3FEF2E7C42900202437002073
:1035700048810200C976020010B501460B48FFF7EA
:10358000F9FE040010D10A4802F042F860B9084977
:1035900006480839FFF7D3FE30B90549012208393A
:1035A000034801F0AFFF0446204610BD3437002029
:1035B000CC29002030B5EFF3108172B60D4A946823
:1035C000012324B10370002900D162B630BD93609D
:1035D0004FF0E023D3F88051074C25401560C3F825
:1035E0008041D3F8844154605A17C3F884210022E3
:1035F0000270E8E744370020FC06FFBD0B498A68EB
:10360000002A11D000280FD1EFF3108072B60B689A
:103610004FF0E022C2F800314B68C2F804310022BA
:103620008A60002800D162B670470000443700204D
:1036300070B5054608680C46411C04D002F0A4F998
:10364000206802F03CF96068411C02D0002102F0C1
:1036500023F928791F4901EB40102968007F0028D1
:10366000A069C1F8240523D0607D227D296810431C
:10367000C1F86C05D4E900122868C0F80C15C0F830
:10368000142522E0A068411C02D0002102F004F9B8
:10369000E068411C04D002F077F9E06802F00FF90D
:1036A000D4E902122868C0F80825C0F8101570BDCA
:1036B000607D217D2A680843C2F86C05D4E90012B8
:1036C0002868C0F81425C0F80C15207D0128D9D031
:1036D00070BD0000F835002070B540B10C4D297860
:1036E00039B1044603F01EFA28B1002070BD0E2047
:1036F00070BD082070BDE868062807D20549226819
:1037000001EB8001401C0A60E860EEE7042070BD18
:10371000A02900206432002040B105490022012385
:10372000CA600B70C1E90102104670470E20704755
:10373000A0290020002823D0002921D0114A127886
:10374000002A1DD00A460188112911D0302907D03E
:10375000322909D0332913D1011D104602F0D6BFFA
:10376000011D104603F084B8011D104602F0F6BE9C
:103770008088B2F8CA12884202D1002082F8C702BB
:1037800070470000A029002010B50B46040009D0A6
:10379000124A107840B1D06830B194F8C70228B10D
:1037A000112010BD0E2010BD082010BDA4F8CA3293
:1037B0000020906084F8C80284F8C60284F8C5022C
:1037C00007482246012100682060184694DF00283F
:1037D000EBD1012084F8C702002010BDA0290020F1
:1037E000643200207FB50288011D3F4D0326044648
:1037F0001D2A21D016DC3C484FF00303102A008814
:1038000003EB00403ED0132A60D01B2A39D109793E
:10381000022954D0032934D104B034A1BDE870404A
:1038200002F08ABA1F2A57D03B2A59D0562A28D1EB
:10383000A088132176DF3BE0344C091D3448216118
:1038400001F014F800281CD0314A0123121D02F1A6
:10385000080120698CDF002813D100F03FFB08B17C
:10386000FFF762FD2069C1788479437902798DE898
:103870001E0083784278288826A106EB004002F0DB
:103880006EFA7FBD2FA102F057FAA18800223248BC
:1038900000F014F908B1FFF747FD072000F01EFB08
:1038A00008B1FFF741FD2C48A1882430FFF76CFFD9
:1038B0000028E6D004B0BDE87040FFF735BD27A171
:1038C00002F03AFABDE87F4003F09CB90023A088DB
:1038D0001A4685217FDFEBE731F8040B75DFE7E758
:1038E000A088132176DFE3E7F02A0020436F6E6E95
:1038F000656374696F6E20526571756573742074A9
:10390000696D6564206F75742E00000078290020B1
:1039100050800200436F6E6E656374696E67207439
:103920006F207461726765742025303278253032DB
:10393000782530327825303278253032782530328B
:1039400078000000436F6E6E656374656420746F69
:103950002074617267657400742E00205363616E79
:103960002074696D6564206F75742E0010B51A4C53
:103970000188606810290ED011292BD1401E60608B
:1039800028D1FFF779FC002824D02168002921D014
:10399000BDE810400847D0B900210122084600F0D8
:1039A0009BFA08B107280FD107220221012000F05D
:1039B00093FA08B1072807D104220221002000F061
:1039C0008BFA20B1072802D0216801B188476068CE
:1039D000401C606010BD0000982900202DE9F041D6
:1039E0001E4D07460C4628880978032606EB004042
:1039F00051B1012922D002292ED119A102F09CF93E
:103A0000BDE8F04103F0FEB819A102F095F9618814
:103A100004F10E02384600F051F808B1FFF784FCBB
:103A2000384600F03BF908B1FFF77EFC288815A165
:103A300006EB0040BDE8F04102F07EB9217BA068B2
:103A400000F050F91B4D207B68706A78A1681A4815
:103A5000FEF7E0FC01202870BDE8F081F02A00208C
:103A6000446973636F6E6E65637465642E00000055
:103A7000446973636F7665727920636F6D706C65EE
:103A800074652E00436F6E6E656374656420746F99
:103A9000206465766963652077697468204E6F726B
:103AA0006469632055415254205365727669636599
:103AB0002E000000782900206431002048B14180A8
:103AC0002AB15188C18011888180918801810020AC
:103AD00070470E207047000030B5114B0D460400B2
:103AE0000FCB85B08DE80F0018D0BDB121466846D8
:103AF00062DF002810D120788DF812000120ADF887
:103B000010004FF6FF7060802868E0600020A08001
:103B1000208104A8FFF7E0FD05B030BD0E20FBE7D3
:103B20001881020010B5024686B008002ED0002A87
:103B30002CD041884FF6FF73994202D09488A1425D
:103B400024D11488112C14D0392C1FD1818800293C
:103B50001CD053898B4219D1C168002916D001218C
:103B60008DF8001002F110010291917B8DF80C107C
:103B700009E092888A4209D1C168002906D0022151
:103B80008DF800104380C2686946904706B010BDAA
:103B900030B585B00C46054614216846FEF753FC47
:103BA000207804F10E01002830D1A08801282DD101
:103BB000A0792A78904229D1002217E002EBC200B6
:103BC00031F81030022B02D0032B0ED105E001EBAF
:103BD00040000089ADF8120007E001EB40000389C6
:103BE000ADF80E304089ADF81000521C207A90429A
:103BF000E4D8E868002809D06088ADF80200002009
:103C00008DF80000EA6869462846904705B030BD47
:103C10003EB503000BD013480224F42A008804EBBD
:103C2000004006D910A102F087F807203EBD0E2003
:103C30003EBD5C88A4F57F45FF3D0DD00F4831C8DF
:103C40008DE8310018890291ADF80200ADF8062028
:103C5000588869469CDF3EBD09A102F06DF8082036
:103C60003EBD0000A82A0020436F6E74656E74206C
:103C7000746F6F206C6F6E672E000000348102003D
:103C8000436F6E6E656374696F6E2068616E646CFD
:103C90006520696E76616C69642E00001FB50100B5
:103CA00019D04888A0F57F42FF3A16D0C988A1B143
:103CB00001228DF80C200A4B00228DF80D20D3E94B
:103CC0000423CDE90023ADF8021003A9029169464F
:103CD0009CDF04B010BD0E20FBE70820F9E70000D0
:103CE000188102002DE9F0470E4605460024DFF852
:103CF00078804FF0010912E0285DFFF73DFC0700D6
:103D00000CD0112FF8D0B8F80010224609EB014072
:103D100016A102F015F83846FFF706FB641CB44202
:103D2000EAD3A81910F8010C0D2804D10A20FFF7D6
:103D300023FC1128FAD0324629461648FFF768FFBF
:103D400004000ED0112CF6D0B8F80010224609EB72
:103D5000014011A101F0F4FF2046BDE8F047FFF754
:103D6000E3BABDE8F0870000F02A00206170705FC0
:103D7000756172745F707574206661696C6564202A
:103D8000666F7220696E64657820307825303478EB
:103D90002E000000742E00204661696C656420735B
:103DA000656E64696E67204E5553206D657373614F
:103DB00067652E204572726F7220307825782E202C
:103DC0000000000030B5174C9DB02078002826D0A8
:103DD0004FF44A70FEF778FE17281ED12069C1788B
:103DE0008579437902798DE82E00837842780EA197
:103DF00004A8FEF7D5FF04A8FEF730FB82B204A9A1
:103E0000012002F0A3FF62781249012002F09EFF18
:103E1000002802DA012000F0EBF8002020701DB02D
:103E200030BD0000782900205B46726F6D20424C47
:103E3000455F505D20253032783A253032783A257A
:103E40003032783A253032783A253032783A253097
:103E5000327820006431002070B50C4E0C004FF019
:103E6000000530600BD0012000F021F808B10220DD
:103E700004E0002000F01BF800B10B2020707068F7
:103E800010B9FFF7F9F90546284670BD98290020BA
:103E900010B5002000F026F808B1062806D1012050
:103EA00000F020F808B1062800D1002010BD7047AE
:103EB000042804D00A280CD1002002F021B90548BA
:103EC0001321408876DF082803D0002801D0FFF7AF
:103ED0002BBA7047742E00200720704700207047CF
:103EE0000020704706207047F8B5861C00208DF82A
:103EF00000000C4601276846FFF75CFB0F4801688D
:103F00002160D0E90012891A82680446511AB51C52
:103F100007E000BF00F0B2FDD4E90001401AA1683B
:103F2000091A491C8D42F5D82068304420609DF85C
:103F30000000FFF763FB3846F8BD00005C38002046
:103F400030B482680468531C8360A154D0E9011224
:103F50008A4202D330BC01F074BB30BC7047000011
:103F6000034803C8814201D10120704700207047F7
:103F70005C3800200249084490F930007047000086
:103F80009035002008B5024690F8C6020B4600EBBB
:103F90008001C1EB801002EB400092F8C52242B1D3
:103FA000521ED2B202EBC20100EB4102518A491CFF
:103FB00000E0C188ADF800100089ADF80200694644
:103FC000184696DF08BD000070B5084C050009D002
:103FD00010342168002907D0086820604968284605
:103FE0008847F6E70834F4E770BD00007C35002010
:103FF00070B50446082802D94FF0FF3070BD4FF469
:10400000847000EB441005461021FEF7C3FD2846DE
:10401000FEF75AFD0028FAD14FF4027000EB44106D
:104020001F21FEF7B7FD0D490120A0404A888243B9
:104030004A808A8882438A800949002021F8140036
:104040000649891D08554FF4427000EB4414204680
:10405000FEF73AFD0028FAD1012070BD4E2A00205B
:10406000043F00202DE9F05F26484168F1B3DFF8F6
:1040700098B00E688146DBF8004087688078E11BC5
:1040800021F07F45ED1CB0B9DFF880804FF480301F
:10409000C8F84403C8F804031120FEF75FFB1120A1
:1040A000FEF767FB4FF0010AC8F800A02F2001F0CF
:1040B00031F889F802A0B54200D23546124BE81912
:1040C0003C3320F07F401860DBF800105A46091B93
:1040D00021F07F41001B20F07F40C91C81420FD995
:1040E000106818602F2001F015F800E004E0BDE82A
:1040F000F05F1120FEF748BBBDE8F05F02F02EBD77
:10410000BDE8F09FB02900200415014000100140D7
:104110002DE9F04117460E460446082803D94FF012
:10412000FF30BDE8F08160014FF001080830FEF774
:10413000CBFC00F00F00012802D06FF00400F0E784
:104140004FF4427000EB44100546FEF7BDFC132807
:1041500002D06FF00200E4E73078717801EB0020C4
:10416000B17801EB0020F17801EB0020411C2CD04C
:1041700058B36FB340F6084000EB441004223146B8
:10418000FEF738FD41F20800390A00EB4410FEF753
:1041900001FD41F20810F9B200EB4410FEF7FAFC01
:1041A0004FF4847000EB441006460421FEF7F2FC45
:1041B0003046FEF789FC0028FAD1164908FA04F0C7
:1041C000498808421AD00020ABE76FF00B00A8E73F
:1041D0006FF00A00A5E72046FEF776FC000706D53B
:1041E00020460821FEF7D6FC6FF00C0099E7284620
:1041F000FEF76AFC30B96FF0030092E74FF40270EB
:1042000000EB44142846FEF75FFC1728E3D1012099
:1042100087E700004E2A002010B50C4606281ED263
:10422000DFE800F003070B101418204603F0D6FD5A
:1042300013E0204603F02EFD0FE02078BDE810408B
:1042400003F0F8BD03F052FD207006E0204603F0B5
:1042500003FE02E0204603F04CFD002010BD4FF0AD
:10426000FF3010BD2DE9F0410C46002102464F1EE3
:1042700008464FF498554FF4A056102A61D2DFE853
:1042800002F0080B17131A1E222C3643464A574ECB
:10429000535A03F0F8FD4BE014B1204604F1080135
:1042A000BDE8F04103F039BD208803F0B7FC3FE0E2
:1042B00003F0D3FC05E0208803F081FD38E003F033
:1042C000DBFC208034E02088010A2846FEF762FCEF
:1042D00021783046FEF75EFC2AE03046FEF7F4FB1C
:1042E00006462846FEF7F0FB06EB0020E9E71648F5
:1042F00082782270C27862700279A2704279E2708C
:1043000080792071617113E003F03AFE10E02046DD
:1043100003F04BFE0CE0204603F0F6FD08E02078A9
:10432000BDE8F04103F066BE03F01EFE05E020701C
:104330000020BDE8F08103F00EFEC0B241B2491C7E
:10434000F5D13846F5E70000642A0020014601480F
:10435000FFF71EBC742E00202DE9F843054690F8A7
:10436000C6020F4600EB8001C1EB801005EB400652
:1043700095F8C542914604EBC40006EB4001327942
:10438000601C0A31904226D16B460022284600F07C
:1043900047FA18B310E0401EA04201D1002004E00B
:1043A00004EBC40006EB40001C30804602466B461E
:1043B000284600F035FA30B100203870694648468A
:1043C00097DFBDE8F88395F8C5024146401C641CA0
:1043D00085F8C502E4B23079A042DCD801203870FB
:1043E0000020EEE770B50446082802D94FF0FF30F0
:1043F00070BD600101250830FEF766FB00F00F007C
:10440000012801D0A81F70BD4FF4847000EB441048
:1044100006460821FEF7BEFB3046FEF755FB002896
:10442000FAD11248A5408188A9438180408805427D
:104430000CD0002070BD3046FEF746FB00070DD5BE
:104440002046FFF7D5FD6FF00C0070BD4FF40270F1
:1044500000EB44164FF4427000EB44152846FEF77B
:1044600033FB0028E7D1012070BD00004E2A002058
:104470002DE9F047894690F8C612904601EB81027B
:10448000C2EB811100EB4107384602F04BFB0600FE
:104490002FD0194CA06806282BD2184D762205EB98
:1044A000C0103946A0F80280001DFDF7B3FF0027B9
:1044B000B9F1000F04D0A06805EBC010077004E04C
:1044C000A168022005EBC1110870A06805EBC011BE
:1044D000401CCE67A060E16888420AD1002604E053
:1044E00005EBC610C16F8847761CE0688642F7D39B
:1044F000A760BDE8F0870000A02900207C320020E2
:1045000070B50E4690F8C612154601EB8102C2EB5B
:104510008111A0B000EB410002F004FB040009D0BF
:104520007C2205496846FDF775FFADF802506846E4
:104530000196A04720B070BD848002000E4910B5DE
:104540000A784C780023A24212D0521CD2B20A70D0
:10455000022A00D10B70084A0B780C3252F8232043
:1045600002608868104420F07F408860012010BD00
:104570000360002010BD0000B029002082688388FD
:104580001A4003689A5C0A708168491C8160704710
:10459000C26883881A4003689954C168491CC16085
:1045A000704710B50446C0B2FEF7E6FF204610BDC6
:1045B00070B508880C46A0F52061773915D10B4DF0
:1045C00003260BA1288806EB004001F0B5FBA0886C
:1045D0000FA1C01E82B20D4813464280288806EB08
:1045E0000040BDE8704001F0B2BB70BDF02A002071
:1045F000415454204D54552065786368616E676559
:1046000020636F6D706C657465642E0078290020DE
:10461000426C65204E5553206D6178206461746151
:10462000206C656E6774682073657420746F203029
:10463000782558282564290010B50949094800F053
:10464000A4FC08B1FEF770FEF721064800F091FCCB
:10465000002803D0BDE81040FEF766BE10BD000084
:10466000B1450200842E00202DE9F04142F208619C
:1046700001EB401542F20871002601EB4014284678
:10468000FEF722FA07462046FEF71EFA00EB072047
:1046900007043F0C09D02846FEF716FA06462046C6
:1046A000FEF712FA00EB062086B2BE42E7D1304692
:1046B000BDE8F0812DE9F04142F2080101EB40151F
:1046C00042F20811002601EB40142846FEF7FCF9DF
:1046D00007462046FEF7F8F900EB072007043F0CD9
:1046E00009D02846FEF7F0F906462046FEF7ECF919
:1046F00000EB062086B2BE42E7D13046BDE8F0812D
:104700002DE9FC5F0E008346DDE90C47C6F1000091
:1047100098469246814600D40846012503E000BF32
:1047200090FBFAF06D1C5045FADAA84500D94546D1
:1047300024B1002E01DB780700D5641EB80702D52E
:10474000B8F1000F0AD0F80708D13CB1A54205D254
:1047500020215846641EFFF7F3FBF6E7002E02DA2D
:104760004E462D2102E0780703D52B215846FFF74E
:10477000E7FB07F0030002280BD1B8F1000F08D1C6
:104780003CB1A54205D230215846641EFFF7D8FB44
:10479000F6E7CDE90047434652463146584603F016
:1047A000EBF8BDE8FC9F000070B50E4604460079AA
:1047B00018494FF4A27501EB4010017F2068A1B1A8
:1047C0004FF4887101F0C4FE4FF49071206801F03D
:1047D000BFFE4FF49271206801F0BAFE29462068AE
:1047E00001F0B6FE0C49206809E04FF48E7101F02B
:1047F0009EFE2946206801F09AFE08492068C0F80C
:104800000413206800F022FD3146BDE8704000F03E
:1048100001BD0000F83500201003020080000200F6
:1048200010B509892AB1D088491C814218D10020CD
:1048300010BD90F8C62202EB8204C4EB821200EB9A
:10484000420212899142F2D0491C198090F8C61296
:1048500001EB8102C2EB811100EB4100008902E013
:104860001980D088401E5880012010BD2DE9F843E2
:104870000E468146002501F110045CE06119675D78
:10488000487802280AD0032808D004281ED005281A
:104890001CD0062838D0072836D049E04FF0000851
:1048A00010E000BF05EB4800011902206A46891C90
:1048B00063DF28B9BDF80010B9F80000814234D098
:1048C00008F10108B8EB570FECD331E04FF00008C6
:1048D00016E000BF05EB8800011904206A46891C18
:1048E00063DF58B9BDF80010B9F80000814205D166
:1048F0009DF8021099F80200814216D008F10108D3
:10490000B8EB970FE6D313E010206A46891C63DFEB
:1049100070B9BDF80010B9F80000814208D19DF8C7
:10492000021099F80200814202D10120BDE8F8830B
:10493000E819401C85B2F07BB5EBD00F9ED3002068
:10494000F4E7000006490120086006480168C1F349
:1049500000410029FAD10449002088707047000006
:104960000C000040180400407C350020F721018035
:1049700017214180002101714171FB2181711B21AF
:10498000C17170472DE9F047394E002780463D46FA
:10499000DFF8E090D6F804A057E003D00446D0F842
:1049A0001C8035E099F8002002EB4201521CD2B283
:1049B00089F8002009EBC10199F80230091D9A42DB
:1049C00001D189F8005048680A780446012A12D0BB
:1049D000022A02D0032A3BD108E002F07DFD00B19B
:1049E0000127257434E00574C06900E07068002870
:1049F000F9D170602CE0207C50BB88686060C8688A
:104A0000A0600869E0604869A061F07800B1656065
:104A10006268B168184B501A20F07F40984202D269
:104A2000A168084406E0881AA16820F07F4081420E
:104A300002D9081A206000E0256065600120A560A9
:104A400020742046E56102F029FDB8F10000A4D1F0
:104A500099F8001099F801008142A3D117B9716843
:104A6000514502D00120BDE8F0870020FBE700009F
:104A7000B029002018360020FFFF7F002DE9FE43FB
:104A8000214DD5E9014704EA070005EB800605F54D
:104A900083600C3600F00CFA05F21440804600F0FA
:104AA00007FA0AE0C0F3891101EB9050641C04443A
:104AB00004EA070005EB80060C3630688107F1D068
:104AC0000020694604EA070205EB8202641CD268F2
:104AD00041F82020401C0228F4D3009800F0030085
:104AE000022800980AD0C0F383100444404600F026
:104AF000D9F9002800D06C60BDE8FE83032101EBEA
:104B0000905004EB9004F1E75C3800208AB000205C
:104B100001F08AF908B1FEF707FC01F029F8FEF769
:104B200049FC08B1FEF700FC01F0B4FA08B1FEF749
:104B3000FBFB18224C496846FDF76CFC4B4806907D
:104B40004B494FF48070CDE9070109900723494A8A
:104B500006A96846FEF7B6FC08B1FEF7E5FB464934
:104B60000120FFF7BDF908B1FEF7DEFB6946002022
:104B7000FFF772F908B1FEF7D7FB4048FEF7CCFD0E
:104B800008B1FEF7D1FB01F01DFC08B1FEF7CCFB2C
:104B9000002000906946012001F0D8FA08B1FEF724
:104BA000C3FB684601F07EFB08B1FEF7BDFBFFF7D3
:104BB00043FD3348009069463248FEF78DFF08B147
:104BC000FEF7B2FB02F046FA02F030FF26482E4A0A
:104BD00001212038FEF7DCFB08B1FEF7A5FB2248D7
:104BE0002A4A01211C38FEF7D3FB08B1FEF79CFBD3
:104BF0001D48274A01211838FEF7CAFB08B1FEF705
:104C000093FB194C0022203C4FF400412068FEF732
:104C1000FBFB08B1FEF788FB40F6CD450022294694
:104C20006068FEF7F1FB08B1FEF77EFB0022294623
:104C3000A068FEF7E9FB08B1FEF776FB15A0FEF7CA
:104C40009FF81D480321008801EB004011A101F0ED
:104C500073F801F0D7FF00BF00F098FF0028FBD1E8
:104C600001F02CFAF8E7000064800200742C0020A8
:104C7000742D0020E9750200B13E02004D43020090
:104C8000DD390200742E002065720200C53D02006D
:104C9000B5730200424C4520554152542063656E65
:104CA0007472616C206578616D706C6520737461DD
:104CB000727465642E000000F02A00202DE9F04790
:104CC000C7880446181D16468946B0FBF7F1B0FBAD
:104CD000F7F207FB12009A193A44D21CB2FBF7F222
:104CE000DDF820A001E02468491E0029FBD13D1A0F
:104CF0008846B54216D818E0BAF1000F05D0211841
:104D000009EB08002A46091D04E0204409EB0801CC
:104D10002A46001DFDF77EFB00202468761BA84470
:104D2000B74201D9354600E03D46002EE4D1BDE84A
:104D3000F087000030B50B46024601F0A3F863B1DE
:104D40000021094C0CE000BF01EB410304EB83039D
:104D500015685B88AB4202D11160002030BD491C50
:104D60008142F1D3052030BD902A002010B586B0D5
:104D700020490020FFF750FA1E490120FFF74CFAA6
:104D800003A90820FFF76EFA03A91BA0FDF7F8FF9F
:104D9000184CE078627921798DE80700A378627871
:104DA00021781BA0FDF7ECFF607A0090237AE2796E
:104DB000A17921A0FDF7E4FF607C0090237CE27BD9
:104DC000A17B22A0FDF7DCFF607B0090237BE27AD1
:104DD000A17A23A0FDF7D4FF607D0090237DE27CC3
:104DE000A17C24A0FDF7CCFF27A0FDF7C9FF06B0EA
:104DF00010BD0000372A00200D0A3D3D3D202573DF
:104E0000204E455420434F4E46203D3D3D0D0A0067
:104E10004D41433A20253032583A253032583A2510
:104E20003032583A253032583A253032583A253007
:104E300032580D0A000000005349503A2025642ED4
:104E400025642E25642E25640D0A00004741523A40
:104E50002025642E25642E25642E25640D0A00006D
:104E60005355423A2025642E25642E25642E256450
:104E70000D0A0000444E533A2025642E25642E2549
:104E8000642E25640D0A00003D3D3D3D3D3D3D3D08
:104E90003D3D3D3D3D3D3D3D3D3D3D3D3D3D0D0AA5
:104EA0000000000008B500216A46FDF768FA08BD59
:104EB00008B501216A46FDF755FA009808BD38B5D6
:104EC000044600258DF800506846FEF773FB216804
:104ED0006268086890420ED9401E08600178238AF3
:104EE000E26801FB0325227A2168101AC0B20A7910
:104EF000824200D208719DF80000FEF77FFB284631
:104F000038BD38B5054600208DF800000C466846CF
:104F1000FEF750FBE868298A201AB0FBF1F12A68F5
:104F20001068431C136001709DF80000FEF766FBDB
:104F300038BD10B530B1017A42680368891AC9B228
:104F40001A6006E00E2010BD03681A68541C1C602D
:104F50001170491EC9B2F7D20068002101710846DC
:104F600010BDC20800F007030120895C984008408A
:104F7000704728B1A1F11702E12A03D30720704737
:104F80000E20704741800020704710B560B101616C
:104F9000F72120F8021B20F8021BFB2100F8021B5E
:104FA000FFF7E4FC002010BD0E2010BD2DE9F043FA
:104FB000858895B00C46002D3DD10188DFF824810D
:104FC0000026DFF82491012723293CD006DC102994
:104FD00009D011290CD022296DD150E03A290BD0EB
:104FE000552968D12AE00146204601F041FB62E0E4
:104FF000A01DFFF7BBFC5EE02246408934F8061F87
:10500000814200D808466080172800D217206080AF
:10501000106970B1607960B1D8E90010CDE9031072
:10502000ADF80E506088ADF81000136903A9104662
:1050300098476671267115B0BDE8F0830146204699
:1050400001F0DCFB37E0011D342206A8FDF7E2F990
:10505000BDF81800BDF81C2004EBC0014A7322699A
:105060004AB3D8E90432CDE90432ADF81200487BE6
:105070008DF814002269204604A990471BE004968D
:10508000059630F8041F04EBC1020179127B8A42B5
:1050900000D21146ADF81010ADF8121000880022B1
:1050A00004A990DF020006D0B9F800000F4907EB11
:1050B000004000F045FEA07A0028BCD0E1882846D8
:1050C0009EDF02000BD0112AB5D0B9F8000015B050
:1050D00007EB0040BDE8F043054900F031BEA67281
:1050E000E772A8E7008102009C2A00208084020069
:1050F000F883020000F180400068002800D0012001
:10510000704708B500F18040002101600068009000
:1051100008BD000000283ED01F49204A096800BF92
:1051200000BF00BF00BF00BF00BF00BF00BF914273
:105130002FD000BF00BF00BF00BF00BF00BF00BF37
:1051400000BF00BF00BF00BF00BF00BF00BF00BF67
:1051500000BF00BF00BF00BF00BF00BF00BF00BF57
:1051600000BF00BF00BF00BF00BF00BF00BF00BF47
:1051700000BF00BF00BF00BF00BF00BF00BF00BF37
:1051800000BF00BF00BF00BF00BF00BF00BF00BF27
:1051900000BF0138C3D170478C2A00200024F400DE
:1051A00070B50F4C0025207808B1852516E0002148
:1051B000A16061602161E1604FF0E020D0F8000162
:1051C000012610F0010F03D10721002000F022F882
:1051D00001F036F908B9034806602670284670BD0C
:1051E0007C3500201805004008B500208DF800002F
:1051F0006846FEF7DFF90648C168491EC160C0680D
:1052000008B9FFF79FFB9DF80000FEF7F7F908BD0E
:105210007C3500204907090E002806DA00F00F024D
:1052200002F1E02282F8141D03E000F1E02282F88E
:10523000001400F01F02012191404009800000F19C
:10524000E020C0F88012C0F800117047000B40B297
:1052500070470121B1EB507F01D101207047002040
:10526000704700002DE9F04105460079164F904641
:1052700007EB40140E46E07E10B10820BDE8F08137
:10528000707F20772846FEF7D3F95FEA0800606058
:105290003169216003D0317F2846FFF785FA2879EC
:1052A00007EB4010007F0028286801D0082100E0AB
:1052B0000421C0F800150020E0752076A0750121BA
:1052C000E176A076DAE70000F83500202DE9F0411C
:1052D00005460079284E904606EB40140F46207F85
:1052E00018B10846FFF7B5FF80B1626800234FF49C
:1052F00004704FF4017172B12A7906EB4212127FE9
:10530000002A2A6805D0C2F8080304E01020BDE88E
:10531000F081C2F80813E27DB2B1227E7AB16268F0
:105320005AB12A7906EB4212127F1AB12968C1F8E4
:10533000040302E02868C0F804131120E7E727619E
:10534000012384F8188005E084F817800020E760C6
:10535000607620762879424606EB40103946007F79
:105360000028284603D0BDE8F04100F073B8BDE83E
:10537000F04100F01BB80000F835002070B504467D
:105380000079094D05EB4010017F00290AD1807E8C
:10539000002807D1204601F024FC2179012005EBEB
:1053A0004111887670BD0000F83500202DE9F05FCE
:1053B00004460079264901EB4015A87E184302D126
:1053C000204601F00EFC68680028206806D04FF4E3
:1053D0000171C0F804130020BDE8F09F4FF4A276DD
:1053E000314601F0A4F8B1464FF4927A4FF4847B31
:1053F0005146206801F096F806465946206801F0AB
:1054000091F880464946206801F08CF8074648EA42
:1054100007003043ECD056EA070007D12946206840
:1054200001F0BAFBE87D697E8842E1D80020E8758A
:105430000EB10320D0E70FB10F20CDE7A97E0120E8
:105440000029216801D00860C5E74860C3E7000073
:10545000F83500202DE9F05F894604464FF4887541
:105460009A46904600260068294601F071F84FF4EC
:10547000A2773946206801F06BF82068C0F83495AF
:10548000C0F838852068BAF1000F14D0D0F80012A7
:1054900041F02001C0F800122179DFF8648008EBA8
:1054A0004110406850B120684FF40471C0F80413F3
:1054B0003046BDE8F09F01210160EDE7AA46B946FC
:1054C0004FF4927B5146206801F03DF8074649466B
:1054D000206801F038F805465946206801F033F895
:1054E000014647EA05000843ECD02379002208EB87
:1054F0004310C27501B10326002DD9D00F26D7E77E
:10550000F83500202DE9F047054600793F4E9046DA
:1055100006EB40140F46207F18B10846FFF799FEAE
:1055200030B1284600F074F820B11120BDE8F087B2
:105530001020FBE784F81680A7600027A78228794F
:105540004FF0010806EB40143E46207F00282868F3
:1055500025D04FF49079494600F0FAFF4FF4AC7A29
:105560005146286800F0F4FF2868A17DA268C0F8C1
:105570004425C0F848152868C0F808806068F0B96C
:105580004946286800F0DFFF80465146286800F051
:10559000DAFF58EA0001F3D058BBA7750FE04FF4CB
:1055A0008E7A514600F0C3FF2868C0F80880214673
:1055B000286801F0FBFF61684FF4807089B13046C4
:1055C000B4E75146286800F0ADFF10B9A08A4845FD
:1055D000F7D1A08A484505D02146286801F0E6FFAA
:1055E00000E08146A08AA17D8842EAD3A08A48458E
:1055F00001D10F26D1E75146286800F093FF00281B
:10560000F9D02868C0F80C80C7E70000F835002002
:105610000079044901EB4010807D002800D0012072
:1056200070470000F83500200FB408B50399002931
:1056300004D004AA00926A4600F00FF801B05DF8A9
:1056400014FB10B582680446002A05D0D4E904038F
:10565000216898470020A06010BD2DE9FC479146C5
:105660000C00804676D014F8011B39B125290ED0E4
:105670004046FEF765FC20780028F4D198F80C002D
:10568000002867D04046BDE8FC47FFF7DABF00209E
:10569000012221782B291BD02D2902D0302908D1B5
:1056A00002E040F0010001E040F00200641C002A2A
:1056B000EFD100252A290ED02178A1F130020A2A43
:1056C00011D205EB850201EB4205641C303DF1E788
:1056D00040F00400EAE7D9F800100B1DC9F80030CB
:1056E0000968641C0D44217800232E290BD114F87D
:1056F000011FA1F130020A2A05D203EB830201EB5C
:105700004203303BF3E76C290DD068290BD069299F
:1057100021D00BDC252918D0582931D063290ED08F
:10572000642915D117E014F8011FECE7702969D03E
:10573000732932D075291BD0782909D120E0D9F8F6
:105740000000011DC9F8001001784046FEF7F8FB83
:10575000641C90E76CE0D9F800100A1DC9F800201D
:105760000968CDE900500A224046FEF7C9FFEFE77D
:10577000D9F800100A1DC9F8002009680A2206E0BD
:10578000D9F800100A1DC9F8002009681022CDE9D7
:105790000050404602F0F0F8DAE7D9F80010002790
:1057A0000A1DC9F800200E68C00705D112E0404666
:1057B000761C7F1CFEF7C4FB31780029F7D104E08A
:1057C000202140466D1EFEF7BBFBBD42C0D9002D17
:1057D000F6D1BDE74EB13046FCF740FE074604E087
:1057E000202140466D1EFEF7ABFBBD4206D9002DC1
:1057F000F6D103E04046761CFEF7A2FB3178002983
:10580000F8D1A5E7D9F80000011DC9F80010056816
:1058100030214046FEF794FB78214046FEF790FB8E
:1058200008200021CDE90001034610222946B0E7F7
:10583000BDE8FC872DE9FF411C46DDE90A781546E5
:105840000E46684600F05EF846EA450141EA8401EA
:1058500041EA072242EA0841009A00EB8200C0F8C0
:105860000017BDE8FF812DE9FF411C46DDE90A78FC
:1058700015460E46684600F061F846EA450141EAE1
:10588000840141EA072242EA0841009A00EB8200C3
:10589000C0F80017BDE8FF811CB500220B4600923E
:1058A00011460192FFF7DFFF1CBD1CB500210091DE
:1058B0000B46012201911146FFF7BCFF1CBD1CB530
:1058C000002100910B46012201911146FFF7CBFF09
:1058D0001CBD13B50C46684600F022F8009900EB99
:1058E0008101D1F8002722F44032C1F80027009945
:1058F00000EB8100D0F8001741EA0441C0F800171E
:105900001CBD00000168202902D24FF0A040704762
:1059100001F01F01016001487047000000030050C2
:105920000168202902D24FF0A040704701F01F010A
:105930000160014870470000000300500168202901
:1059400002D24FF0A040704701F01F0101600148F2
:1059500070470000000300500168202902D24FF078
:10596000A040704701F01F0101600148704700002E
:105970000003005001B56846FFF7C4FF009A0121FB
:105980009140C0F8081508BD01B56846FFF7D6FF7D
:10599000009A01219140C0F8081508BD1CB5094CBA
:1059A0000144D4E90034CDE900346C4606E000BF80
:1059B00054F82030D3F81035401C08C28142F7D883
:1059C0001CBD000040810200034908B508440021C5
:1059D00001600068009008BD006000400249405826
:1059E000012800D0002070470060004070B5184AC0
:1059F0000024D2F81034194609E00D7AA54205D1E9
:105A0000641C0A2CF7DB4FF0FF341FE049680029C3
:105A1000F3D1611C1AD00472D2F8101431B1496864
:105A20004160D2F81014486000250BE00021C2F854
:105A300010044160F8E700231A462946204600F08A
:105A40002BFA6D1C00F01EFAA842F4D8204670BD57
:105A50005C3800207047FCF7F1BE704708B5034A78
:105A600000924023024A00F005F808BD696E02006A
:105A70005C370020F0B595B01C4615460F46084629
:105A80001A9E00F0E1FA182109A8FCF7DCFC0E963A
:105A9000CDE909540023082203A9384600F0EEFAA4
:105AA000059806900498ADF81C0000208DF82000A1
:105AB0000398082600F00300012802D002281DD018
:105AC0003CE003983346850AC0F3C2008DF81E00FF
:105AD00003980FA9C0F380008DF81F000398C0F34E
:105AE0008314A200384600F0C9FA09A8009006AB5A
:105AF00022460FA9284600F003FA1FE00398840D00
:105B0000C0F3C2008DF81E000398C0F380008DF82A
:105B10001F00082C01D2254600E0082533462A46FE
:105B20000FA9384600F0AAFA2E44641B09AB06AA56
:105B300029460FA800F022F9002CEAD1384600F0DF
:105B40008CFA15B0F0BD0000084A012902EBC00034
:105B500005D0022903D0032903D0042903D0002053
:105B6000704700797047407970470000F88A02005A
:105B700010B5FFF770FF04210348FFF737FF024914
:105B80000120487210BD0000E02900202DE9FE4FE1
:105B9000FEF7E6F910B10020BDE8FE8F6348002152
:105BA000C0F81414D0E9014604EA060100EB8101B3
:105BB0004FF000090AE000BFC1F3891202EB9151D6
:105BC000641C0C4404EA060100EB8101C9688A07E1
:105BD000F2D000216A46804604EA060008EB800005
:105BE000641CC06842F82100491C0229F4D30098C3
:105BF00000F00300022800981CD0C0F3831106298E
:105C000000D3062161F389100090C0F38310801C3B
:105C10008100474800F0CFF9070075D000F014FA72
:105C20004B4608226946384600F02EFA09F1080969
:105C3000002557E0810D50228A46B2EB905F00D8D4
:105C400050210D4665F39F5000900831384800F010
:105C5000B2F9070058D000F0F7F94B460822694620
:105C6000384600F011FA04EA0601701A8000001D9F
:105C700009F1080B854220D92C4E0C3630B1C2B246
:105C800008EB8101281A91460C3104E03146EAB252
:105C9000002691463046C5B25B46384600F0F4F91E
:105CA0000BEB090326B12A463146384600F0ECF9E1
:105CB0000AF1030004EB90041AE008EB81015B4653
:105CC0002A4638460C31F1E704EA060008EB800169
:105CD0004B46042238460C31641C00F0D5F909F11A
:105CE00004096D1C0098C0F38310A842ECD85FB182
:105CF0001048FFF7D7F8D8F81054464605B140B120
:105D0000384600F0AAF97460FEF72AF980F0010025
:105D100042E7687A012804D12A6828463946126881
:105D200090476D68002DF4D1EAE700005C38002050
:105D3000AC820200703C002000231A4601F046BAF3
:105D400008B5012300926A4601F040FA08BD1CB56F
:105D5000CDE9002302236A4601F038FA1CBDF0B5F4
:105D600087B00DF1300C9CE8F0008DE8FC000623B4
:105D70006A4601F02BFA07B0F0BD00002DE9F047AC
:105D80000E4680461C46924608293ED894F80C9050
:105D9000002020731946104600F0FCFD0025B54296
:105DA00006D218F805201AA12046FFF73DFC03E0B3
:105DB00019A12046FFF738FC6D1C082DEFD317A161
:105DC0002046FFF731FC0025B54210D218F80570C7
:105DD000FCF71CFB0068C05D10F03E0F01D03A4696
:105DE00000E02E220EA12046FFF71EFC03E00DA1CD
:105DF0002046FFF719FC6D1C082DE5D30122214632
:105E0000504600F0A9FD84F80C90BDE8F087000032
:105E10002025303278000000202020007C00000087
:105E20002563000020000000114810B5FF218160AB
:105E3000002101604160C0F81814C0F8141480F803
:105E40001C140C4800F007F900280FD10A480B4930
:105E50000B4B401AC108002005E000BF00EB4002D8
:105E600023F82200401C8842F8D3002010BD000017
:105E70005C380020AC820200588B0200F88A0200D5
:105E8000902A002002480349401AC00870470000C9
:105E9000588B0200F88A02001FB51146002443B94E
:105EA00001A8FEF747FF20B90348019900EBC100A4
:105EB000847904B0204610BDF88A020013B5684604
:105EC000FEF738FF08B100201CBD0248009950F8C9
:105ED00031001CBDF88A020070B508480125D0F8D1
:105EE000104480F81C5405E065722168204649681A
:105EF00088476468002CF7D170BD00005C38002032
:105F00002DE9FF4781460C9D00200C462F7B28730E
:105F1000984616462946184600F03CFD072E42D208
:105F2000DFE806F004090F161F2A36004946284606
:105F3000FFF77AFB37E0494628462268FFF774FBF3
:105F400031E0D4E9002349462846FFF76DFB2AE0FB
:105F5000A0680090D4E9002349462846FFF764FB77
:105F600021E0D4E90201CDE90001D4E9002349464A
:105F70002846FFF759FB16E004F1080007C88DE832
:105F80000700D4E9002349462846FFF74DFB0AE005
:105F900004F108000FC88DE80F00D4E9002349463A
:105FA0002846FFF741FB00222946404600F0D4FC7A
:105FB0002F73BDE8FF872DE9F041058A80462D1F2C
:105FC0004819C01CB0FBF5F0C6B24046FEF777FF9B
:105FD000041E19D00020207101206071E580002787
:105FE0002546761EC4F800800BE04046FEF767FFAA
:105FF00060B16179491C6171286005467F1CC0F859
:106000000080B742F1D32046BDE8F081204600F081
:1060100002F80020F8E72DE9F041457901466B1EB2
:10602000002201E00968521C9A42FBD30F68014626
:10603000002605E038460C68FEF763FF2146761C13
:10604000AE42F7D3BDE8F08108B501216A46001DD4
:10605000FCF713F908BDFEF76CBF38B50446001D08
:1060600001216A46FCF716F9009810F0FF0F04D1E1
:106070002046BDE83840FFF7CEBF38BD38B5012413
:106080000094FEF71BFE38BD38B500240094FEF7DF
:1060900015FE38BD064910B500204870091D08607E
:1060A000BFF35F8F0349044800F0EEF9002010BDF4
:1060B000D4290020908102005037002008B500202C
:1060C0008DF800006846FDF775FAF1EE100A20F031
:1060D0009F00E1EE100ABFF35F8F08494020C1F82E
:1060E00080029DF80000FDF789FA00F0A9F908B1D7
:1060F0003EDF08BD20BF40BF20BF08BD04E000E078
:10610000F8B504460B4801216A46FCF7D1F8002592
:10611000002809D10121074E042C08D0301F4278F5
:106120001AB13560BFF35F8FF8BD0470417000F0A5
:10613000C1FEF6E7D829002020B1034909680160B3
:10614000002070470E207047308302002DE9FE4387
:1061500005460E460846FFF7EFFF00287ED1804631
:10616000CDF80080CDF80480012403208DF8005084
:10617000ADF80400CDF808808DF802406946202073
:10618000326869DF3F4F40B100F0C2F902463888FB
:106190003D4904EB0040FFF7D3FDCDF800808DF8BA
:1061A00000808DF80140CDF80480CDF808808DF88E
:1061B000024069464020326869DF40B100F0A8F92A
:1061C00002463888314904EB0040FFF7B9FDCDF8AD
:1061D00000808DF80050F720ADF80200CDF8048063
:1061E000CDF8088069462320326869DF40B100F0AD
:1061F0008FF902463888264904EB0040FFF7A0FDDE
:10620000CDF80080CDF80480CDF808808DF80040EE
:10621000454669460120326869DF40B100F078F9EF
:10622000024638881B4904EB0040FFF789FD1A48F5
:1062300001950295406800906946A120326869DFA7
:1062400040B100F065F902463888144904EB00407B
:10625000FFF776FD00950195029500E010E08DF8BE
:1062600000506946A020326869DF40B100F050F963
:10627000024638880A4904EB0040FFF761FD002020
:10628000BDE8FE83082B00208C890200D48902001F
:10629000208A0200EC880200308302003889020064
:1062A000988802002DE9F0410446076860DF226803
:1062B000134D0646BA4214D02888022707EB004047
:1062C00010A1FFF73DFDF806D0F80C01216880020F
:1062D00000F10050421A288814A107EB0040FFF794
:1062E0002FFD56B1304600F013F9024628880121EF
:1062F00001EB004017A1FFF723FD3046BDE8F08118
:10630000082B002052414D20737461727420736811
:106310006F756C642062652061646A75737465646E
:1063200020746F20307825782E00000052414D20D7
:1063300073697A652073686F756C6420626520618B
:10634000646A757374656420746F20307825782EC4
:106350000000000073645F626C655F656E61626C73
:106360006528292072657475726E65642025732E08
:106370000000000030B5EBB04FF4CE75ADF8A85179
:106380006AA9684661DF30B1052816D06BB0BDE858
:106390003040FCF7C9BF6C46094967A800F074F8A3
:1063A00007E000BFD0E900212046904767A800F031
:1063B00082F869980028E1D0F4E76BB030BD0000A6
:1063C0003883020038B5124C207808B1082038BD57
:1063D0000125A570002000F08BFC112815D00020AD
:1063E00000F09EFC0B480C4900680090684610DFE6
:1063F0000028ECD12570A0706070162000F014FC0D
:106400000028E4D1012000F08BFC002038BD000002
:10641000342A0020D0820200B13202000EB50749B2
:10642000684600F031F805E0D0E90010884768467A
:1064300000F041F802980028F6D10EBDEC8202006F
:106440000148007870470000342A00201FB56846D4
:1064500048DF30B1052814D004B0BDE81040FCF787
:1064600063BF084901A800F00FF806E0D0E9002159
:106470000098904701A800F01EF803980028E6D085
:10648000F4E71FBD54830200016009684160AFF367
:10649000008010B5D0E900215368994201D1002154
:1064A00004E0D1E90034A34202D01946816010BD56
:1064B00008314160F0E7816800290BD002689268DA
:1064C0000A44826041684B689A4203D108314160B6
:1064D000FFF7DFBF704700000C4A10B502F1F00370
:1064E0000EE0991AC91001EBD171491002EBC101FC
:1064F0000C68844201D90B4602E005D201F1080282
:106500009A42EED3002010BD486810BDB081020051
:1065100000B5FFF7E1FF002800D1014800BD0000F1
:106520009C8102004058002800D00120704708B527
:10653000002242504058009008BDD0F804030840A3
:1065400000D0012070474058002800D0012070473B
:1065500008B5002242504058009008BD2DE9F84F80
:1065600005460C460888B5F8CA12884259D195F8F4
:10657000C602DFF8F8A000EB8001C1EB801005EB4C
:10658000400160884FF003094FF00008F0BBE68837
:106590000879A21DF3B250FA86F6062E01D80344FC
:1065A00000E006230B7100261CE000BF00EBC003D7
:1065B00006EB860702EB470701EB4303D7F802C05F
:1065C000C3F80AC0D7F806C0C3F80EC07F895F823F
:1065D000A3F81480A3F81680A3F81880401CA3F831
:1065E0001A80761C0B798342E0D895F8C62200EB1E
:1065F000C00002EB8203C3EB821205EB420231F8CA
:106600001000128990420ED2087900E00BE00628B3
:1066100009D085F8C50221882846FDF7B3FC0100A2
:106620000AD1BDE8F88F85F8C582228869462846D8
:10663000FDF792FE01000BD085F8C782228828461C
:10664000FDF75EFF8AF800902188AAF80210E8E7BB
:106650009DF800000028E4D0228801212846FDF79B
:1066600007FF2188284600F039F9DAE77C3200205C
:106670002DE9FC418E88027900EBC605AC1D2A731A
:10668000C97B012902D0022904D101E0008800E081
:1066900040882080218860880127DFF8648081425B
:1066A0000CD930469EDF020025D0112A25D0B8F83B
:1066B0000000144907EB0040FFF742FBA079E179A5
:1066C000884216D9002000900190287BADF8000088
:1066D000287BADF8020000226946304690DF0300B7
:1066E00007D0B8F80000324607EB00400649FFF734
:1066F0002EFBBDE8FC816771E0E72771DEE7000053
:106700009C2A0020F8830200C8840200F8B50546E0
:106710000C460888B5F8CA1288425DD195F8C602C1
:10672000A61D00EB8001C1EB801005EB400395F83E
:10673000C502618800EBC00003EB40000A3039B3AA
:1067400029E000BF01EB410206EB42029788B7F552
:10675000245F0CD06FF4245C17EB0C070AD0012FD8
:1067600002D0072F0BD108E05288428107E05288FF
:10677000828104E05288C28101E05288028242890B
:106780002AB182891AB1C2890AB1028A1AB9491C8E
:1067900032888A42D6D800268DF8006095F8C50266
:1067A0001979401C884203D101208DF8000018E0BF
:1067B00085F8C502228869462846FDF7CDFD01000F
:1067C0000BD085F8C76222882846FDF799FE0A4853
:1067D0000321017021884180F8BD9DF80000002848
:1067E000FAD0228801212846FDF742FE218828465A
:1067F00000F074F8F8BD00007C3200207CB506463D
:106800008D88C88806EBC504A41D172800D2172060
:106810002188814200D808466080002020712188AC
:106820002846ADDF020007D00E480121008801EBA9
:1068300000400D49FFF784FA6079002810D13069D3
:1068400000280DD00948D0E90210CDE90010ADF8BC
:1068500002506088ADF804003269694630469047BE
:106860007CBD00009C2A00203C84020000810200C4
:1068700070B505460C4690F8C602228800EB8001F0
:10688000C1EB801005EB4001B5F8CA02824222D16B
:10689000608848B100212846FDF7EAFD2188284696
:1068A000BDE8704000F01AB8A2680A60E068C1F85C
:1068B000060021882846FDF765FB01000BD000206B
:1068C00085F8C70222882846FDF71AFE02480321F0
:1068D00001702188418070BD7C3200202DE9F0419B
:1068E000044690F8C8020E46401C1949C0B284F80C
:1068F000C802C9680327174D4FF0000E884224D202
:1069000084F8C5E294F8C602401CC0B200EB8001D6
:10691000C1EB801104EB410284F8C602A5F1180115
:1069200001EB800001210068106082F804E030462D
:1069300094DF010007D084F8C7E232462046FDF715
:10694000DFFD2F706E80BDE8F08184F8C7E2F8E7C4
:10695000A02900207C32002010B50C46C17949B135
:106960001AB109A12046FEF75FFE2046BDE810409F
:10697000FEF767BE007A0028F3D0044804A102683D
:106980002046FEF751FEECE70D0A0000102A002019
:106990002573000070B50446C0790D4600281CD14F
:1069A000207A50B1A179A088FFF7CEF80B4951F8B1
:1069B00020200BA12846FEF737FEA0880021FFF714
:1069C0007DFA03460549A079143951F8202028465C
:1069D000BDE8704003A1FEF727BE70BD102A00205D
:1069E000257300003C25733E2025733A20000000EB
:1069F0002DE9F74F14460546082803D94FF0FF301C
:106A0000BDE8FE8F680101260830FCF75DF800F054
:106A10000F00012801D0B01FF2E724B341F608604F
:106A200000EB4510FCF750F84FF6FF7101EA8020AB
:106A3000A04200D204464FF4427000EB451841F6E4
:106A40000870DFF88CA000EB451B06FA05F9284614
:106A5000FDF70AFE06464046FCF736F8172816D022
:106A60001C2803D00DE06FF00D00C9E7CEB9284611
:106A7000FDF720FE07465846FCF726F8B7EB802FB7
:106A800005D12846FDF7B4FA6FF00600B8E7BAF86A
:106A9000021019EA010F02D01EB90020B0E7002E43
:106AA000D5D0A64200D2344622462846019901F0AC
:106AB00051F84FF4847000EB451005464021FCF777
:106AC00069F82846FCF700F80028FAD1204697E735
:106AD0004E2A0020054A18B111B1C2E904017047DD
:106AE000034810610348506170470000642A002089
:106AF000417C02003F7C0200074A10B513889C05C8
:106B0000FDD518B111B1C2E9060110BD034890616D
:106B10000348D06110BD0000642A0020817E02007D
:106B2000857E020070B50C4B00210A4ADC680DE03E
:106B300002EB81058678AD78B54206D132F8215056
:106B40000688B54201D1586870BD491CA142EFD3F7
:106B5000002070BD64320020A029002070B50126FD
:106B600070044FF0E0210025C1F88001084C40106E
:106B7000C4F84803C4F8080366602F20FEF7CAFA79
:106B8000A660044C2F20A560FEF7C4FAA57070BD66
:106B900000100140B029002070B50546C87D0C46A4
:106BA00000284FF4847128460AD0FFF7C0FCD5F8BE
:106BB0001805627EE1688854607E401C607670BD76
:106BC000FFF7B5FCD5F8180570BD1FB501238DF88A
:106BD00000308DF808100192D0E900126846904705
:106BE0001FBD10B5044600684FF49271FFF79FFC7B
:106BF0004FF484712068FFF79AFC2068012101603E
:106C000010BD000010B507488ADF08B1FCF78CFB07
:106C10000120FDF763F9002803D0BDE81040FCF720
:106C200083BB10BD5C80020010B50446FCF7DCF8A5
:106C300040B1002C09DA04F00F0000F1E02090F8D8
:106C4000140D06E042F2010010BD04F1E02090F8BE
:106C500000044109082914D299B1012911D004294D
:106C60000FD005290DD00C498B6804F01F020120BC
:106C70009040620943B151F82230034341F8223079
:106C800007E042F2020010BD910001F1E021C1F8DD
:106C90000001002010BD00004437002038B500215D
:106CA000012558B101280ED003280BD1072100205F
:106CB000FEF7B0FABDE83840FEF796BA4FF0E02094
:106CC000C0F8805138BD8DF800106846FCF772FCA2
:106CD000064C207808B9FEF763FAE068401CE060D3
:106CE000A5709DF80000FCF789FC38BD7C350020BC
:106CF0003EB5044609496846FFF7C6FB08E000BFF9
:106D0000D0E900212046904730B16846FFF7D3FB19
:106D100002980028F4D13EBD11203EBDD48202006D
:106D20003EB5044608496846FFF7AEFB07E000BFE2
:106D3000D0E90021204690476846FFF7BCFB029847
:106D40000028F5D13EBD0000E08202002DE9F05F91
:106D500015468B460646082803D94FF0FF30BDE89C
:106D6000F09F700101240830FBF7AEFE00F00F0029
:106D7000012801D0A01FF2E775B14FF4427000EB7B
:106D800046100746FBF7A0FE6FF0060A172806D04C
:106D90001C2804D05046E2E76FF00D00DFE7DFF873
:106DA000C480B440B8F80400044213D04FF4027019
:106DB00000EB46108146FBF787FE00F01F00C1067E
:106DC00024D548461021FBF7E5FEB8F80410A1438E
:106DD000A8F8041041F6087000EB4610FBF774FEAB
:106DE0004FF6FF7101EA8020854200D90546304602
:106DF000FDF760FC81463846FBF766FE17280DD08C
:106E00001C280BD03046FDF7F3F8C3E700070BD57D
:106E10003046FDF7EDF86FF00C00A0E7B8F802007F
:106E2000044203D04D4501D9002098E74D45DED8F6
:106E30002A465946304600F0BDFE4FF4847000EB00
:106E4000461006462021FBF7A5FE3046FBF73CFE28
:106E50000028FAD1B8F8041028460C43A8F80440DA
:106E60007DE700004E2A00202DE9F04114000F4676
:106E70000DD000250A26791922460020FBF7E0FCF8
:106E80000544241A08B9761E01D0002CF3D1BDE8C0
:106E9000F08110B504460020FDF720F808B1FCF79A
:106EA00043FA24B9FCF7F4FF08B1FCF73DFA0120DE
:106EB00010BD000070B5194D194C07E0016820782D
:106EC0008847002829D01548FFF7F5FAA868002858
:106ED000F4D1FFF701F800BFFEF758FE0028FBD100
:106EE000207803280CD002280AD0FFF7A9FA00B1B5
:106EF00032DF0C4901200860BFF34F8F20BFFDE750
:106F0000BFF34F8F08480168084A01F4E06111435C
:106F10000160BFF34F8F00BFFDE770BD5037002009
:106F2000D4290020000500400CED00E00400FA0523
:106F3000002801D1FDF748B8704700002DE9F8435B
:106F40001D4617460E460446082803D94FF0FF3069
:106F5000BDE8F883012E06D0022E0CD0042E0AD0F4
:106F60006FF00400F4E7042269464FF47060FBF709
:106F7000D7FD009848B169076FF00500E8D49DB1CE
:106F8000012E05D0022E0FD106E06FF00200DFE7E0
:106F900015F0210FDCD007E0A90601D52906D7D5C9
:106FA000E90601D52906D3D52046FDF721F8600171
:106FB00005F0F0014FF0010831430830FBF7EAFD1E
:106FC000224E57B93788781C80B2A0F57F413080B7
:106FD000F03902D14FF4404030804FF48160390ADB
:106FE00000EB4410FBF7D6FD4FF4A160F9B200EBC3
:106FF0004410FBF7CFFD4FF4847000EB44100746BC
:107000000121FBF7C7FD3846FBF75EFD0028FAD1EA
:1070100008FA04F0718805F001028143A2400A4396
:107020007280B1888143B1800949002021F81400A1
:107030000649891D08554FF4427000EB4415284657
:10704000FBF742FD0028FAD060B281E74E2A00200B
:10705000043F00201CB50549D1E90001CDE900013C
:107060006946002000F004F81CBD00007C8002008E
:107070002DE9FC410C460546012802D90020BDE857
:10708000FC81224905EB450001EB400021680160CD
:10709000A1888180A078FEF708FCE078FEF705FC67
:1070A0000027207900973B463A4639460197FEF77C
:1070B000C1FB6079FEF7F9FB154EA07856F8251054
:1070C000C1F8080556F82510E078C1F80C0556F807
:1070D00025102079C1F810056079FEF74BFC607827
:1070E00056F825100006C1F8240556F8251020781A
:1070F000C1F8540556F82500C0F8087156F8251057
:107100000120C1F8000556F82500B8E758320020E4
:107110009029002010B552B1134B53F820001B1FCB
:1071200018600023C0F80831C0F81C350EE00020BC
:1071300010BD00BFC0F81C35D0F80841002CFBD0B2
:10714000C0F80831D0F8184502F8014B491E09046F
:10715000090CEFD1D0F808110029FBD0D0F81805A0
:107160001070012010BD00009029002038B562B1D8
:10717000154B53F820001B1F18600023C0F808317E
:1071800012F8014BC0F81C450FE0002038BD00BFCD
:1071900012F8015BC0F81C55D0F80841002CFBD058
:1071A000C0F80831D0F818450094491E0904090CAC
:1071B000EED100BFD0F808110029FBD0D0F8180597
:1071C0000090012038BD0000902900202DE9F843EF
:1071D000DFF88C800446914698F81C04D8F80850D3
:1071E0000F461E46002838D169461846FCF77CFE3B
:1071F000002832D00098C44600EA050108EB81025D
:1072000052F80C1F21F00301491C401C1160E306D9
:1072100002D541F0040101E021F0040164F3C5014D
:1072200066F3891167F39F21116000EA0501220CC2
:107230000CEB8101401CCA60009000200BE000BFF5
:10724000009959F8203001EA05020CEB8202491C32
:10725000D360401C0091B042F2D3BDE8F883000037
:107260005C3800203EB54CF250344FF44A70FBF7C6
:107270002BFC002834D0132811D01C2842D1012126
:1072800021A0FBF77DFD0120FDF7ACF8012803D01C
:10729000012121A0FBF774FD012125A02DE0294C3F
:1072A000A01DE3688178C2788DE80E0043780278EB
:1072B000012125A0FBF764FDA089A11D82B2012058
:1072C000FCF726FF012803D001212AA0FBF758FD77
:1072D00003B00B22BDE830402DA10120FFF736BDE1
:1072E0000120FCF785FE0121224600230846FFF716
:1072F00025FE012806D0012128A003B0BDE83040BA
:10730000FBF73EBD3EBD000025643A436C6F7365DC
:10731000576169740D0A000025643A536F636B6509
:107320007420436C6F736564204661696C0D0A00BC
:1073300025643A536F636B657420436C6F736564A7
:107340000D0A00007829002025643A5472792074CF
:107350006F20636F6E6E65637420746F2074686550
:107360002025642E25642E25642E2564203A2025B0
:10737000640D0A0025643A536F636B657420436F94
:107380006E6E656374204661696C0D0A0000000032
:10739000636F6E6E65637465640D0A0025643A530D
:1073A0006F636B6574204F70656E204661696C0D6C
:1073B0000A0000002DE9F041ADF5006D0026012026
:1073C000FDF752F904000ED04FF40060844200D360
:1073D0000446224669460120FFF70AFB002817DA17
:1073E0000120FCF705FE0DF5006DBDE8F081F42CE1
:1073F00001D2254600E0F42508EB0607AAB239467B
:107400000548FCF705FC0028F8D1641B2E4400E079
:10741000E846002CEBD1E6E7742E00202DE9F84F6A
:107420001D4C00256846D4E901A6FDF787F8002722
:1074300038B30023009A61681CE0D1F800C0084608
:10744000944503D9ACEB02020A6015E0A2EB0C02F2
:1074500063440760D0F80CC0C1698146BCF1000FDD
:1074600008D006EB030828F07F48C0E9018CC9F872
:107470001C5005460029E0D128466160FDF782FADC
:1074800003E02846FDF77EFA10B15046FCF7EAFD0E
:10749000E770BDE8F88F0000B02900200D4B10B553
:1074A000596831B102680C68A24204D8A21A0A6075
:1074B000C161586010BD0B4603E00B46C969121B41
:1074C00021B10C689442F8D3A41A0C600260C16127
:1074D000D86110BDB02900202DE9F041144E776825
:1074E0003D462C4603E0844204D02546E469002C46
:1074F000F9D11BE0D4B1A5420BD1F869706040B955
:107500000C49012088600021B160F0702F20FDF748
:1075100001FE2168E069E86110B102681144016070
:107520007068874202D00120BDE8F0810020FBE7AF
:10753000B0290020001001402DE9F041194D6C6880
:10754000002C2CD0184800270068A968B846401ABB
:1075500020F07F462068B0420CD82146361A0744F6
:10756000E469087C20B181F81080886949698847FE
:10757000002CEFD129786878814206D1401CC0B236
:107580006870022801D185F80180064869780C30BE
:1075900040F82170BDE8F0411420FBF7F5B8BDE8D4
:1075A000F0810000B02900200415014070B50C46A0
:1075B00005464FF48E71FEF7BAFFA18AA068415CC0
:1075C000A08A401CA082C5F81C1570BD1FB5002202
:1075D0008DF800208DF80810816801918275D0E93E
:1075E0000012684690471FBD70B50278044652B13C
:1075F0001A480121012A008801EB004025D0022A07
:1076000022D117A122E0244C224DA0882844FBF768
:107610003FFFA088401C80B22918A08011F8011CEF
:107620000A2902D0618888420ED31A49A28801F53E
:107630003D70FCF7EDFA082804D01128F5D008B108
:10764000FBF772FE0020A08070BD14A1FEF774FB52
:107650006068BDE87040FBF767BE0000F02A0020BC
:10766000436F6D6D756E69636174696F6E206572CD
:10767000726F72206F6363757272656420776869D8
:107680006C652068616E646C696E67205541525468
:107690002E000000802B0020782900204572726F98
:1076A00072206F6363757272656420696E2046494B
:1076B000464F206D6F64756C65207573656420623C
:1076C0007920554152542E007CB50178244D81B368
:1076D00001290BD002292BD18DF80010C068691C3C
:1076E00001900122C81DFDF7F1FD2EE040680178F0
:1076F0001C48FBF73FFE1B4C012618B18DF80060BB
:10770000019006E0A068E168814205D000208DF874
:107710000000696868468847A068E168081AA1887F
:10772000884207D80E490122491CC81DFDF7CEFD2D
:107730007CBD01E0AE70FBE70A4809491030FBF759
:10774000FEFD30B103208DF8000069686846884767
:10775000EEE70349012201F10800FDF7D3FEE7E758
:10776000C4290020243700202DE9FF470C46054698
:107770004FF40071FEF7E1FE01274FF40178002677
:1077800018B34FF4927949462846FEF7CBFEE0B194
:1077900049462846FEF7CBFEC5F80883A07E00B90F
:1077A0006F6002208DF80000D5F88004C5F88004D1
:1077B0000390E07D8DF80800E0680190E67526767C
:1077C000D4E900126846904727E004212846FEF7D6
:1077D000B4FE10B34FF484712846FEF7A3FEE0B167
:1077E00021462846FFF7D8F9E07D617E884214D112
:1077F000207E38B1617EE268E0752069E06026761F
:10780000667607E0A07E00B96F60C5F80883E6756C
:10781000617EE2682046FFF7D8F94FF48E78414642
:107820002846FEF77FFE88B1A08AA17D884204D257
:1078300021462846FFF7BAFE08E041462846FEF7F3
:1078400076FEA17D11B12046FFF7C0FE4FF4A2786D
:1078500041462846FEF766FE002812D041462846DB
:10786000FEF765FEA07E00B12F60E07D002808D005
:10787000E675617EE26804B02046BDE8F047FFF798
:10788000A4B9BDE8FF872DE9FF410C464FF492777C
:1078900005463946FEF757FE0026C0B13946284650
:1078A000FEF756FE02208DF80000D5F88004C5F8DA
:1078B00080040390D5F83C058DF80800E06801903D
:1078C000E6752676D4E900126846904724E04FF426
:1078D000887739462846FEF736FEE8B1394628460D
:1078E000FEF736FED5F83C05C1B2E07D884213D1E3
:1078F000207E60B1E268D5F8000220F02000C5F8D3
:107900000002207EE0752069E060267601E0E675E1
:10791000E2682046FFF759F94FF4A2773946284626
:10792000FEF711FE68B139462846FEF711FEE07DEC
:1079300038B1E675D5F83C05E268C1B22046FFF7DC
:1079400044F94FF4907631462846FEF7FCFD0028B6
:107950000FD031462846FEF7FBFDA07D002808D059
:10796000D5F84C0504B0C1B22046BDE8F041FFF7A0
:107970002DBEBDE8FF8100002DE9F05F8346DDE903
:107980000A4A994690460D460846012703E000BF83
:10799000B0FBF8F07F1C4045FAD2B94500D94F46FC
:1079A0005FEACA7012D18CB15FEA8A7002D5B9F170
:1079B000000F01D0202607E0302605E0314658466A
:1079C000641EFCF7BDFA0CB1A742F7D35FF00106C5
:1079D000B9F1010F02D9A9F1010903E0B5FBF6F0F5
:1079E000404502D306FB08F6F2E7DFF83C9000BF03
:1079F000B5FBF6F000FB165519F800105846FCF7D9
:107A00009FFAB6FBF8F6002EF2D15FEACA7009D0F1
:107A1000002C07D0A74205D220215846641EFCF74F
:107A20008FFAF5E7BDE8F09F6881020000B51D4BB5
:107A300087B00DF1040C0FCB8CE80F001A491B48DE
:107A4000FFF748F81A491B48FFF756F81AA0FBF74A
:107A500097F901A90120FCF705FC401C09D01BA0E7
:107A6000FBF78EF969460F20FCF7FCFB401C04D0A5
:107A700006E01EA0FBF784F9FEE723A0FBF780F9E0
:107A80009DF800000028EDD001208DF814004FF47F
:107A90007A70ADF8160005A800F0DEF9FDF766F97A
:107AA00007B000BD60830200437C0200A77D020096
:107AB000FB7E0200957D02005735353030206D6524
:107AC0006D6F727920696E69740D0A005735353013
:107AD0003020504859204C696E6B20537461747586
